:100000000C945D000C9485000C9485000C94850084
:100010000C9485000C9485000C9485000C9485004C
:100020000C9485000C9485000C9485000C9485003C
:100030000C9485000C9485000C9485000C9485002C
:100040000C94F1030C9485000C9461040C943B0413
:100050000C9485000C9485000C9485000C9485000C
:100060000C9485000C94850000000008000201003B
:100070000003040700000000000000000000000072
:10008000250028002B0000000000240027002A0083
:10009000040404040404040402020202020203032E
:1000A0000303030301020408102040800102040836
:1000B0001020010204081020B20511241FBECFEF4A
:1000C000D8E0DEBFCDBF11E0A0E0B1E0EAE8F0E1AA
:1000D00002C005900D92A23BB107D9F722E0A2EB36
:1000E000B1E001C01D92A835B207E1F710E0CDE5FF
:1000F000D0E004C02197FE010E943D08CC35D10715
:10010000C9F70E9493040C9443080C94000090E0FB
:10011000FC01EC55FF4F249180579F4FFC018491C7
:10012000882399F090E0880F991FFC01EA57FF4F50
:10013000A591B491FC01E458FF4F859194918FB73C
:10014000F894EC91E22BEC938FBF089590E0FC01C2
:10015000E859FF4F2491FC01EC55FF4F3491FC010D
:10016000E057FF4FE491EE23C9F0222339F023300A
:1001700001F1A8F4213019F1223029F1F0E0EE0F5D
:10018000FF1FE458FF4FA591B4918FB7F894EC91FD
:10019000611126C030953E233C938FBF08952730D0
:1001A000A9F02830C9F0243049F7809180008F7D74
:1001B00003C0809180008F7780938000DFCF84B56B
:1001C0008F7784BDDBCF84B58F7DFBCF8091B0006E
:1001D0008F778093B000D2CF8091B0008F7DF9CF20
:1001E0003E2BDACF1F93CF93DF93182FEB010E94A2
:1001F0008700209739F460E0812FDF91CF911F9124
:100200000C94A600CF3FD10511F461E0F5CFE12FAA
:10021000F0E0E859FF4FE491E33031F140F4E13090
:10022000B1F0E230E1F0C038D1057CF7E4CFE7303F
:1002300029F1E83059F1E430B1F780918000806213
:1002400080938000D0938B00C0938A0004C084B553
:10025000806884BDC7BDDF91CF911F91089584B59B
:10026000806284BDC8BDF7CF809180008068809394
:100270008000D0938900C0938800EDCF8091B000BA
:1002800080688093B000C093B300E5CF8091B00048
:1002900080628093B000C093B400DDCF3FB7F89484
:1002A0008091B7019091B801A091B901B091BA01C4
:1002B00026B5A89B05C02F3F19F00196A11DB11DC1
:1002C0003FBFBA2FA92F982F8827BC01CD01620FFD
:1002D000711D811D911D42E0660F771F881F991FB8
:1002E0004A95D1F708958F929F92AF92BF92CF9285
:1002F000DF92EF92FF920E944E014B015C0188E871
:10030000C82E83E1D82EE12CF12C0E944E016819F1
:1003100079098A099B09683E734081059105A8F314
:1003200021E0C21AD108E108F10888EE880E83E0C6
:10033000981EA11CB11CC114D104E104F10429F7D9
:10034000FF90EF90DF90CF90BF90AF909F908F90F5
:100350000895AF92BF92CF92DF92EF92FF920F93E8
:100360001F93CF93DF936C017B018B01040F151F4B
:10037000EB015E01AE18BF08C017D10759F06991B3
:10038000D601ED91FC910190F081E02DC601099517
:10039000892B79F7C501DF91CF911F910F91FF90C4
:1003A000EF90DF90CF90BF90AF900895FC01538DF8
:1003B000448D252F30E0842F90E0821B930B54173F
:1003C00010F0CF96089501970895FC01918D828DCC
:1003D000981761F0A28DAE0FBF2FB11D5D968C9165
:1003E000928D9F5F9F73928F90E008958FEF9FEFA4
:1003F0000895FC01918D828D981731F0828DE80F60
:10040000F11D858D90E008958FEF9FEF0895FC0119
:10041000918D228D892F90E0805C9F4F821B9109E6
:100420008F73992708958BEB91E00E94070221E0DA
:10043000892B09F420E0822F089580E090E0892B39
:1004400029F00E94130281110C9400000895FC0110
:10045000A48DA80FB92FB11DA35ABF4F2C91848D25
:1004600090E001968F739927848FA689B7892C9382
:10047000A089B1898C91837080648C93938D848DD5
:10048000981306C00288F389E02D80818F7D8083D8
:100490000895EF92FF920F931F93CF93DF93EC0198
:1004A00081E0888F9B8D8C8D98131AC0E889F9891B
:1004B000808185FF15C09FB7F894EE89FF8960831E
:1004C000E889F98980818370806480839FBF81E09F
:1004D00090E0DF91CF911F910F91FF90EF900895E1
:1004E000F62E0B8D10E00F5F1F4F0F731127E02EBC
:1004F0008C8D8E110CC00FB607FCFACFE889F989F4
:10050000808185FFF5CFCE010E942702F1CFEB8DD0
:10051000EC0FFD2FF11DE35AFF4FF0829FB7F894C7
:100520000B8FEA89FB8980818062CFCFCF93DF93E5
:10053000EC01888D8823B9F0AA89BB89E889F989FB
:100540008C9185FD03C0808186FD0DC00FB607FC30
:10055000F7CF8C9185FFF2CF808185FFEDCFCE0163
:100560000E942702E9CFDF91CF910895FC0101900D
:100570000020E9F73197AF01481B590BBC018BEB09
:1005800091E00C94A9018F929F92AF92BF920F932A
:100590001F93CF93DF93CDB7DEB7A1970FB6F89433
:1005A000DEBF0FBECDBF19A2423008F44AE08E0173
:1005B0000F5D1F4F842E912CB12CA12CA50194010D
:1005C0000E941B08E62FB901CA01EA30F4F4E05D8D
:1005D000D801EE938D01232B242B252B79F790E066
:1005E00080E0109719F0CD010E94B602A1960FB6D7
:1005F000F894DEBF0FBECDBFDF91CF911F910F9159
:10060000BF90AF909F908F900895E95CE1CFCF931A
:10061000DF930E94B602EC0188E191E00E94B602ED
:100620008C0F9D1FDF91CF9108954F925F926F9233
:100630007F928F929F92AF92BF92CF92DF92EF9272
:10064000FF920F931F93CF936B017C01742EAC012B
:100650009B010E941608882399F08BE191E0CF91CD
:100660001F910F91FF90EF90DF90CF90BF90AF90D0
:100670009F908F907F906F905F904F900C94B602F8
:1006800046015701E894B7F82FEF3FEF4FE75FE7D8
:10069000C501B4010E94160881110DC02FEF3FEF74
:1006A0004FE75FE7C501B4010E944C0618161CF421
:1006B0008FE191E0D4CF2FEF3FEF4FE75FE4C70129
:1006C000B6010E94A40718161CF483E291E0C7CF7C
:1006D0002FEF3FEF4FE75FECC701B6010E944C06DA
:1006E00087FDF3CF20E030E0A901C701B6010E94E9
:1006F0004C0610E000E087FF0AC06DE28BEB91E052
:100700000E9449028C01F7FAF094F7F8F094C0E0E7
:1007100060E070E080E09FE37C1641F020E030E094
:1007200040E251E40E945106CF5FF6CFA701960147
:100730000E94E0052B013C010E94C3064B015C01B5
:100740004AE00E94C3027C01E00EF11ECC23C1F1FD
:10075000C501B4010E94F2069B01AC01C301B201C4
:100760000E94DF054B015C016EE28BEB91E00E9481
:100770004902E80EF91EC15018F120E030E040E2D5
:1007800051E4C501B4010E94A9072B013C010E945C
:10079000C3064B01B12CA12C4AE0C501B4010E9453
:1007A000C302E80EF91EC501B4010E94F2069B01C6
:1007B000AC01C301B2010E94DF054B015C01DBCF3C
:1007C000C701CF911F910F91FF90EF90DF90CF90D5
:1007D000BF90AF909F908F907F906F905F904F9061
:1007E00008951F920F920FB60F9211242F933F93EB
:1007F0008F939F93AF93BF938091B3019091B40176
:10080000A091B501B091B6013091B20123E0230F60
:100810002D3758F50196A11DB11D2093B20180938B
:10082000B3019093B401A093B501B093B601809148
:10083000B7019091B801A091B901B091BA010196A8
:10084000A11DB11D8093B7019093B801A093B90188
:10085000B093BA01BF91AF919F918F913F912F912A
:100860000F900FBE0F901F90189526E8230F029649
:10087000A11DB11DD2CF1F920F920FB60F9211245E
:100880002F933F934F935F936F937F938F939F9398
:10089000AF93BF93EF93FF938BEB91E00E942702FE
:1008A000FF91EF91BF91AF919F918F917F916F9148
:1008B0005F914F913F912F910F900FBE0F901F901E
:1008C00018951F920F920FB60F9211242F938F93AA
:1008D0009F93EF93FF93E091CB01F091CC01808146
:1008E000E091D101F091D20182FD1BC090818091F5
:1008F000D4018F5F8F732091D501821741F0E09171
:10090000D401F0E0E554FE4F958F8093D401FF9120
:10091000EF919F918F912F910F900FBE0F901F908D
:1009200018958081F4CF789484B5826084BD84B5B5
:10093000816084BD85B5826085BD85B5816085BDDA
:1009400080916E00816080936E0010928100809192
:10095000810082608093810080918100816080931A
:100960008100809180008160809380008091B1003F
:1009700084608093B1008091B00081608093B0006A
:1009800080917A00846080937A0080917A008260FE
:1009900080937A0080917A00816080937A008091C0
:1009A0007A00806880937A001092C100E091CB01B8
:1009B000F091CC0182E08083E091C701F091C80101
:1009C0001082E091C901F091CA018FEC80831092EE
:1009D000D301E091CF01F091D00186E08083E091D6
:1009E000CD01F091CE01808180618083E091CD01C5
:1009F000F091CE01808188608083E091CD01F091FB
:100A0000CE01808180688083E091CD01F091CE019C
:100A100080818F7D808383E00E94870085E00E9433
:100A2000870000E010E0EE24EA94F12C812C912C58
:100A300090E8A92E9FE3B92E8091040190910501C1
:100A400097FF10C087E291E00E940703F092050132
:100A5000E09204018092000190920101A0920201B3
:100A6000B09203018CE391E00E94B6026091000114
:100A700070910101809102019091030142E00E9476
:100A8000150388E191E00E94B60280E591E00E94A2
:100A9000B60223E333E343E550E460910001709133
:100AA000010180910201909103010E94A90742E097
:100AB0000E94150388E191E00E94B6026091040152
:100AC0007091050183E00E94F2000E94730170E0C2
:100AD00060E083E00E94F2008FE691E00E9407034D
:100AE000C0910401D0910501BE0185E00E94F20091
:100AF0000E94730170E060E085E00E94F200AD9713
:100B0000D0930501C093040180E991E00E9407039E
:100B10006091040170910501072E000C880B990B60
:100B20000E94F40620E030E040E85FE30E94DF0529
:100B300020E030E04FE753E40E945106609300014B
:100B40007093010180930201909303010115110537
:100B500009F472CF0E941302882309F46DCF0E941A
:100B600000006ACFEBEBF1E01382128288EE93E093
:100B7000A0E0B0E084839583A683B7838AE091E008
:100B80009183808385EC90E09587848784EC90E066
:100B90009787868780EC90E0918B808B81EC90E04A
:100BA000938B828B82EC90E0958B848B86EC90E02B
:100BB000978B868B118E128E138E148E089550583B
:100BC000BB27AA270E94F7050C946A070E945C07BE
:100BD00038F00E94630720F039F49F3F19F426F49F
:100BE0000C9459070EF4E095E7FB0C945307E92F9A
:100BF0000E947B0758F3BA176207730784079507AB
:100C000020F079F4A6F50C949D070EF4E0950B2ED8
:100C1000BA2FA02D0B01B90190010C01CA01A0014E
:100C20001124FF27591B99F0593F50F4503E68F1A9
:100C30001A16F040A22F232F342F4427585FF3CFEA
:100C4000469537952795A795F0405395C9F77EF4BB
:100C50001F16BA0B620B730B840BBAF09150A1F004
:100C6000FF0FBB1F661F771F881FC2F70EC0BA0F8A
:100C7000621F731F841F48F4879577956795B79512
:100C8000F7959E3F08F0B0CF9395880F08F099270D
:100C9000EE0F9795879508950E942F0708F481E03D
:100CA00008950E9465060C946A070E94630758F035
:100CB0000E945C0740F029F45F3F29F00C94530731
:100CC00051110C949E070C9459070E947B0768F3FE
:100CD0009923B1F3552391F3951B550BBB27AA27F5
:100CE00062177307840738F09F5F5F4F220F331F2F
:100CF000441FAA1FA9F335D00E2E3AF0E0E832D0F7
:100D000091505040E695001CCAF72BD0FE2F29D0F9
:100D1000660F771F881FBB1F261737074807AB07CB
:100D2000B0E809F0BB0B802DBF01FF2793585F4F40
:100D30003AF09E3F510578F00C9453070C949E07AF
:100D40005F3FE4F3983ED4F3869577956795B79522
:100D5000F7959F5FC9F7880F911D9695879597F92D
:100D60000895E1E0660F771F881FBB1F62177307A6
:100D70008407BA0720F0621B730B840BBA0BEE1FBB
:100D800088F7E09508950E94830788F09F5798F0B0
:100D9000B92F9927B751B0F0E1F0660F771F881F80
:100DA000991F1AF0BA95C9F714C0B13091F00E949A
:100DB0009D07B1E008950C949D07672F782F882731
:100DC000B85F39F0B93FCCF3869577956795B395C1
:100DD000D9F73EF490958095709561957F4F8F4F30
:100DE0009F4F0895E89409C097FB3EF49095809535
:100DF000709561957F4F8F4F9F4F9923A9F0F92FE1
:100E000096E9BB279395F695879577956795B7955E
:100E1000F111F8CFFAF4BB0F11F460FF1BC06F5F44
:100E20007F4F8F4F9F4F16C0882311F096E911C056
:100E3000772321F09EE8872F762F05C0662371F077
:100E400096E8862F70E060E02AF09A95660F771F8B
:100E5000881FDAF7880F9695879597F90895990F67
:100E60000008550FAA0BE0E8FEEF16161706E80774
:100E7000F907C0F012161306E407F50798F0621B95
:100E8000730B840B950B39F40A2661F0232B242B6A
:100E9000252B21F408950A2609F4A140A6958FEF89
:100EA000811D811D089597F99F6780E870E060E0DB
:100EB00008959FEF80EC089500240A9416161706F3
:100EC00018060906089500240A941216130614063B
:100ED00005060895092E0394000C11F4882352F09E
:100EE000BB0F40F4BF2B11F460FF04C06F5F7F4F56
:100EF0008F4F9F4F089557FD9058440F551F59F03D
:100F00005F3F71F04795880F97FB991F61F09F3FF6
:100F100079F087950895121613061406551FF2CF1F
:100F20004695F1DF08C0161617061806991FF1CF6F
:100F300086957105610508940895E894BB27662796
:100F40007727CB0197F908950E942F0708F48FEFB8
:100F500008950E94BC070C946A070E945C0738F051
:100F60000E94630720F0952311F00C9453070C9412
:100F7000590711240C949E070E947B0770F3959FDC
:100F8000C1F3950F50E0551F629FF001729FBB2780
:100F9000F00DB11D639FAA27F00DB11DAA1F649F1C
:100FA0006627B00DA11D661F829F2227B00DA11DCF
:100FB000621F739FB00DA11D621F839FA00D611D55
:100FC000221F749F3327A00D611D231F849F600D76
:100FD000211D822F762F6A2F11249F5750409AF09F
:100FE000F1F088234AF0EE0FFF1FBB1F661F771F2B
:100FF000881F91505040A9F79E3F510580F00C94F6
:1010000053070C949E075F3FE4F3983ED4F3869514
:1010100077956795B795F795E7959F5FC1F7FE2B95
:10102000880F911D9695879597F908950E942F072F
:10103000880B990B0895A1E21A2EAA1BBB1BFD0178
:101040000DC0AA1FBB1FEE1FFF1FA217B307E407A7
:10105000F50720F0A21BB30BE40BF50B661F771FFF
:10106000881F991F1A9469F76095709580959095DF
:101070009B01AC01BD01CF010895EE0FFF1F05904C
:0A108000F491E02D0994F894FFCFDD
:10108A000000803FFF00000000004902A901D601CC
:10109A0096020702E501F9010D0A006E616E006908
:1010AA006E66006F766600212156697465737365F2
:1010BA00206D6178696D616C6521210052617070E3
:1010CA006F7274206379636C69717565203A2000C8
:1010DA0054656E73696F6E20646520636F6D6D6110
:1010EA006E6465206D6F79656E6E65203A200049E1
:1010FA006E76657273696F6E2064652073656E73B0
:10110A0020646520726F746174696F6E2E2E2E00D2
:10111A003D3D3D3D3D3D3D3D3D3D3D3D3D3D3D3DF5
:10112A003D3D3D3D3D3D3D3D3D3D3D3D3D3D3D3DE5
:02113A000000B3
:00000001FF
